{
    "contractName": "MyERC1808Mintable",
    "abi": [
        {
            "constant": true,
            "inputs": [],
            "name": "name",
            "outputs": [
                {
                    "internalType": "string",
                    "name": "",
                    "type": "string"
                }
            ],
            "payable": false,
            "stateMutability": "pure",
            "type": "function"
        },
        {
            "constant": false,
            "inputs": [
                {
                    "internalType": "address",
                    "name": "_owner",
                    "type": "address"
                },
                {
                    "internalType": "string",
                    "name": "_worldView",
                    "type": "string"
                },
                {
                    "internalType": "string",
                    "name": "_baseData",
                    "type": "string"
                }
            ],
            "name": "createNFT",
            "outputs": [],
            "payable": false,
            "stateMutability": "nonpayable",
            "type": "function"
        },
        {
            "constant": true,
            "inputs": [],
            "name": "totalSupply",
            "outputs": [
                {
                    "internalType": "uint256",
                    "name": "",
                    "type": "uint256"
                }
            ],
            "payable": false,
            "stateMutability": "view",
            "type": "function"
        },
        {
            "constant": false,
            "inputs": [
                {
                    "internalType": "uint256",
                    "name": "_tokenId",
                    "type": "uint256"
                },
                {
                    "internalType": "address",
                    "name": "_to",
                    "type": "address"
                }
            ],
            "name": "safeTransferByContract",
            "outputs": [],
            "payable": false,
            "stateMutability": "nonpayable",
            "type": "function"
        },
        {
            "constant": false,
            "inputs": [
                {
                    "internalType": "address",
                    "name": "_from",
                    "type": "address"
                },
                {
                    "internalType": "address",
                    "name": "_to",
                    "type": "address"
                },
                {
                    "internalType": "uint256",
                    "name": "_tokenId",
                    "type": "uint256"
                }
            ],
            "name": "transferFrom",
            "outputs": [],
            "payable": true,
            "stateMutability": "payable",
            "type": "function"
        },
        {
            "constant": false,
            "inputs": [
                {
                    "internalType": "address",
                    "name": "_newSystemAdmin",
                    "type": "address"
                }
            ],
            "name": "transferSystemAdmin",
            "outputs": [],
            "payable": false,
            "stateMutability": "nonpayable",
            "type": "function"
        },
        {
            "constant": true,
            "inputs": [
                {
                    "internalType": "uint256",
                    "name": "_chainId",
                    "type": "uint256"
                },
                {
                    "internalType": "string",
                    "name": "otherTokenId",
                    "type": "string"
                }
            ],
            "name": "getTokenId",
            "outputs": [
                {
                    "internalType": "uint256",
                    "name": "",
                    "type": "uint256"
                }
            ],
            "payable": false,
            "stateMutability": "view",
            "type": "function"
        },
        {
            "constant": false,
            "inputs": [],
            "name": "doUnpause",
            "outputs": [],
            "payable": false,
            "stateMutability": "nonpayable",
            "type": "function"
        },
        {
            "constant": false,
            "inputs": [
                {
                    "internalType": "uint256",
                    "name": "_tokenId",
                    "type": "uint256"
                },
                {
                    "internalType": "uint256",
                    "name": "_chainId",
                    "type": "uint256"
                },
                {
                    "internalType": "string",
                    "name": "_otherChainTokenId",
                    "type": "string"
                }
            ],
            "name": "setNFTOtherChainTokenId",
            "outputs": [],
            "payable": false,
            "stateMutability": "nonpayable",
            "type": "function"
        },
        {
            "constant": true,
            "inputs": [
                {
                    "internalType": "uint256[]",
                    "name": "_tokenIds",
                    "type": "uint256[]"
                }
            ],
            "name": "getNFTs",
            "outputs": [
                {
                    "components": [
                        {
                            "internalType": "address",
                            "name": "creator",
                            "type": "address"
                        },
                        {
                            "internalType": "uint256",
                            "name": "timestamp",
                            "type": "uint256"
                        },
                        {
                            "internalType": "string",
                            "name": "worldView",
                            "type": "string"
                        },
                        {
                            "internalType": "string",
                            "name": "baseData",
                            "type": "string"
                        }
                    ],
                    "internalType": "struct MyERC1808Mintable.NFT[]",
                    "name": "nfts",
                    "type": "tuple[]"
                }
            ],
            "payable": false,
            "stateMutability": "view",
            "type": "function"
        },
        {
            "constant": true,
            "inputs": [
                {
                    "internalType": "address",
                    "name": "_owner",
                    "type": "address"
                }
            ],
            "name": "getOwnNFTIds",
            "outputs": [
                {
                    "internalType": "uint256[]",
                    "name": "tokenIds",
                    "type": "uint256[]"
                }
            ],
            "payable": false,
            "stateMutability": "view",
            "type": "function"
        },
        {
            "constant": false,
            "inputs": [
                {
                    "internalType": "address",
                    "name": "_from",
                    "type": "address"
                },
                {
                    "internalType": "address",
                    "name": "_to",
                    "type": "address"
                },
                {
                    "internalType": "uint256",
                    "name": "_tokenId",
                    "type": "uint256"
                }
            ],
            "name": "safeTransferFrom",
            "outputs": [],
            "payable": true,
            "stateMutability": "payable",
            "type": "function"
        },
        {
            "constant": false,
            "inputs": [
                {
                    "internalType": "address",
                    "name": "_operator",
                    "type": "address"
                },
                {
                    "internalType": "bool",
                    "name": "_authorized",
                    "type": "bool"
                }
            ],
            "name": "setAuthorizedForAll",
            "outputs": [],
            "payable": false,
            "stateMutability": "nonpayable",
            "type": "function"
        },
        {
            "constant": true,
            "inputs": [
                {
                    "internalType": "uint256",
                    "name": "_tokenId",
                    "type": "uint256"
                }
            ],
            "name": "getNFT",
            "outputs": [
                {
                    "components": [
                        {
                            "internalType": "address",
                            "name": "creator",
                            "type": "address"
                        },
                        {
                            "internalType": "uint256",
                            "name": "timestamp",
                            "type": "uint256"
                        },
                        {
                            "internalType": "string",
                            "name": "worldView",
                            "type": "string"
                        },
                        {
                            "internalType": "string",
                            "name": "baseData",
                            "type": "string"
                        }
                    ],
                    "internalType": "struct MyERC1808Mintable.NFT",
                    "name": "nft",
                    "type": "tuple"
                }
            ],
            "payable": false,
            "stateMutability": "view",
            "type": "function"
        },
        {
            "constant": true,
            "inputs": [],
            "name": "myChainAddr",
            "outputs": [
                {
                    "internalType": "address",
                    "name": "",
                    "type": "address"
                }
            ],
            "payable": false,
            "stateMutability": "view",
            "type": "function"
        },
        {
            "constant": true,
            "inputs": [
                {
                    "internalType": "uint256",
                    "name": "_tokenId",
                    "type": "uint256"
                }
            ],
            "name": "ownerOf",
            "outputs": [
                {
                    "internalType": "address",
                    "name": "",
                    "type": "address"
                }
            ],
            "payable": false,
            "stateMutability": "view",
            "type": "function"
        },
        {
            "constant": true,
            "inputs": [
                {
                    "internalType": "address",
                    "name": "_owner",
                    "type": "address"
                },
                {
                    "internalType": "address",
                    "name": "_operator",
                    "type": "address"
                }
            ],
            "name": "isAuthorizedForAll",
            "outputs": [
                {
                    "internalType": "bool",
                    "name": "",
                    "type": "bool"
                }
            ],
            "payable": false,
            "stateMutability": "view",
            "type": "function"
        },
        {
            "constant": false,
            "inputs": [
                {
                    "internalType": "address",
                    "name": "_owner",
                    "type": "address"
                },
                {
                    "internalType": "string",
                    "name": "_worldView",
                    "type": "string"
                },
                {
                    "internalType": "string",
                    "name": "_baseData",
                    "type": "string"
                },
                {
                    "internalType": "uint256",
                    "name": "_chainId",
                    "type": "uint256"
                },
                {
                    "internalType": "string",
                    "name": "_otherChainTokenId",
                    "type": "string"
                }
            ],
            "name": "createNFT",
            "outputs": [],
            "payable": false,
            "stateMutability": "nonpayable",
            "type": "function"
        },
        {
            "constant": false,
            "inputs": [],
            "name": "doPause",
            "outputs": [],
            "payable": false,
            "stateMutability": "nonpayable",
            "type": "function"
        },
        {
            "constant": true,
            "inputs": [
                {
                    "internalType": "address",
                    "name": "_owner",
                    "type": "address"
                }
            ],
            "name": "balanceOf",
            "outputs": [
                {
                    "internalType": "uint256",
                    "name": "",
                    "type": "uint256"
                }
            ],
            "payable": false,
            "stateMutability": "view",
            "type": "function"
        },
        {
            "constant": true,
            "inputs": [
                {
                    "internalType": "address",
                    "name": "_businessAdmin",
                    "type": "address"
                }
            ],
            "name": "isBusinessAdmin",
            "outputs": [
                {
                    "internalType": "bool",
                    "name": "",
                    "type": "bool"
                }
            ],
            "payable": false,
            "stateMutability": "view",
            "type": "function"
        },
        {
            "constant": true,
            "inputs": [],
            "name": "symbol",
            "outputs": [
                {
                    "internalType": "string",
                    "name": "",
                    "type": "string"
                }
            ],
            "payable": false,
            "stateMutability": "pure",
            "type": "function"
        },
        {
            "constant": true,
            "inputs": [],
            "name": "systemAdmin",
            "outputs": [
                {
                    "internalType": "address",
                    "name": "",
                    "type": "address"
                }
            ],
            "payable": false,
            "stateMutability": "view",
            "type": "function"
        },
        {
            "constant": true,
            "inputs": [],
            "name": "isPaused",
            "outputs": [
                {
                    "internalType": "bool",
                    "name": "",
                    "type": "bool"
                }
            ],
            "payable": false,
            "stateMutability": "view",
            "type": "function"
        },
        {
            "constant": false,
            "inputs": [
                {
                    "internalType": "address",
                    "name": "_authorized",
                    "type": "address"
                },
                {
                    "internalType": "uint256",
                    "name": "_tokenId",
                    "type": "uint256"
                }
            ],
            "name": "authorize",
            "outputs": [],
            "payable": true,
            "stateMutability": "payable",
            "type": "function"
        },
        {
            "constant": true,
            "inputs": [
                {
                    "internalType": "uint256",
                    "name": "",
                    "type": "uint256"
                }
            ],
            "name": "nftArray",
            "outputs": [
                {
                    "internalType": "address",
                    "name": "creator",
                    "type": "address"
                },
                {
                    "internalType": "uint256",
                    "name": "timestamp",
                    "type": "uint256"
                },
                {
                    "internalType": "string",
                    "name": "worldView",
                    "type": "string"
                },
                {
                    "internalType": "string",
                    "name": "baseData",
                    "type": "string"
                }
            ],
            "payable": false,
            "stateMutability": "view",
            "type": "function"
        },
        {
            "constant": false,
            "inputs": [
                {
                    "internalType": "uint256",
                    "name": "_tokenId",
                    "type": "uint256"
                }
            ],
            "name": "destroyNFT",
            "outputs": [],
            "payable": false,
            "stateMutability": "nonpayable",
            "type": "function"
        },
        {
            "constant": true,
            "inputs": [
                {
                    "internalType": "uint256",
                    "name": "_tokenId",
                    "type": "uint256"
                }
            ],
            "name": "getAuthorized",
            "outputs": [
                {
                    "internalType": "address",
                    "name": "",
                    "type": "address"
                }
            ],
            "payable": false,
            "stateMutability": "view",
            "type": "function"
        },
        {
            "constant": true,
            "inputs": [
                {
                    "internalType": "uint256",
                    "name": "_tokenId",
                    "type": "uint256"
                }
            ],
            "name": "tokenURI",
            "outputs": [
                {
                    "internalType": "string",
                    "name": "",
                    "type": "string"
                }
            ],
            "payable": false,
            "stateMutability": "view",
            "type": "function"
        },
        {
            "constant": false,
            "inputs": [
                {
                    "internalType": "address",
                    "name": "_businessAdmin",
                    "type": "address"
                },
                {
                    "internalType": "bool",
                    "name": "_changeType",
                    "type": "bool"
                }
            ],
            "name": "setBusinessAdmin",
            "outputs": [],
            "payable": false,
            "stateMutability": "nonpayable",
            "type": "function"
        },
        {
            "constant": false,
            "inputs": [
                {
                    "internalType": "address",
                    "name": "_from",
                    "type": "address"
                },
                {
                    "internalType": "address",
                    "name": "_to",
                    "type": "address"
                },
                {
                    "internalType": "uint256",
                    "name": "_tokenId",
                    "type": "uint256"
                },
                {
                    "internalType": "string",
                    "name": "data",
                    "type": "string"
                }
            ],
            "name": "safeTransferFromWithExtData",
            "outputs": [],
            "payable": true,
            "stateMutability": "payable",
            "type": "function"
        },
        {
            "constant": true,
            "inputs": [],
            "name": "getNFTArrayLength",
            "outputs": [
                {
                    "internalType": "uint256",
                    "name": "",
                    "type": "uint256"
                }
            ],
            "payable": false,
            "stateMutability": "view",
            "type": "function"
        },
        {
            "constant": true,
            "inputs": [
                {
                    "internalType": "uint256",
                    "name": "_chainId",
                    "type": "uint256"
                },
                {
                    "internalType": "string",
                    "name": "_otherChainTokenId",
                    "type": "string"
                }
            ],
            "name": "isExistTokenId",
            "outputs": [
                {
                    "internalType": "bool",
                    "name": "",
                    "type": "bool"
                }
            ],
            "payable": false,
            "stateMutability": "view",
            "type": "function"
        },
        {
            "inputs": [
                {
                    "internalType": "address",
                    "name": "_myChainAddr",
                    "type": "address"
                }
            ],
            "payable": false,
            "stateMutability": "nonpayable",
            "type": "constructor"
        },
        {
            "anonymous": false,
            "inputs": [
                {
                    "indexed": true,
                    "internalType": "address",
                    "name": "owner",
                    "type": "address"
                },
                {
                    "indexed": true,
                    "internalType": "uint256",
                    "name": "tokenId",
                    "type": "uint256"
                },
                {
                    "indexed": false,
                    "internalType": "string",
                    "name": "baseData",
                    "type": "string"
                },
                {
                    "indexed": false,
                    "internalType": "uint256",
                    "name": "chainId",
                    "type": "uint256"
                },
                {
                    "indexed": false,
                    "internalType": "string",
                    "name": "otherTokenId",
                    "type": "string"
                }
            ],
            "name": "CreateNFT",
            "type": "event"
        },
        {
            "anonymous": false,
            "inputs": [
                {
                    "indexed": true,
                    "internalType": "address",
                    "name": "owner",
                    "type": "address"
                },
                {
                    "indexed": false,
                    "internalType": "uint256",
                    "name": "tokenId",
                    "type": "uint256"
                }
            ],
            "name": "DeleteNFT",
            "type": "event"
        },
        {
            "anonymous": false,
            "inputs": [
                {
                    "indexed": true,
                    "internalType": "address",
                    "name": "preSystemAdmin",
                    "type": "address"
                },
                {
                    "indexed": true,
                    "internalType": "address",
                    "name": "newSystemAdmin",
                    "type": "address"
                }
            ],
            "name": "SystemAdminTransferred",
            "type": "event"
        },
        {
            "anonymous": false,
            "inputs": [
                {
                    "indexed": true,
                    "internalType": "address",
                    "name": "businessAdmin",
                    "type": "address"
                },
                {
                    "indexed": true,
                    "internalType": "bool",
                    "name": "changeType",
                    "type": "bool"
                }
            ],
            "name": "BusinessAdminChanged",
            "type": "event"
        },
        {
            "anonymous": false,
            "inputs": [
                {
                    "indexed": true,
                    "internalType": "address",
                    "name": "from",
                    "type": "address"
                },
                {
                    "indexed": true,
                    "internalType": "address",
                    "name": "to",
                    "type": "address"
                },
                {
                    "indexed": true,
                    "internalType": "uint256",
                    "name": "tokenId",
                    "type": "uint256"
                }
            ],
            "name": "Transfer",
            "type": "event"
        },
        {
            "anonymous": false,
            "inputs": [
                {
                    "indexed": true,
                    "internalType": "address",
                    "name": "owner",
                    "type": "address"
                },
                {
                    "indexed": true,
                    "internalType": "address",
                    "name": "authorized",
                    "type": "address"
                },
                {
                    "indexed": true,
                    "internalType": "uint256",
                    "name": "tokenId",
                    "type": "uint256"
                }
            ],
            "name": "Authorized",
            "type": "event"
        },
        {
            "anonymous": false,
            "inputs": [
                {
                    "indexed": true,
                    "internalType": "address",
                    "name": "owner",
                    "type": "address"
                },
                {
                    "indexed": true,
                    "internalType": "address",
                    "name": "operator",
                    "type": "address"
                },
                {
                    "indexed": false,
                    "internalType": "bool",
                    "name": "authorized",
                    "type": "bool"
                }
            ],
            "name": "AuthorizedForAll",
            "type": "event"
        }
    ],
    "bytecode": "60806040526000805460ff191690553480156200001b57600080fd5b506040516200353a3803806200353a8339810160408190526200003e91620001bc565b60008054600280546001600160a01b0319166001600160a01b038516179055610100600160a81b0319908116336101000290811790911617905560048054600101906200008c9082620000b6565b5050600254600380546001600160a01b0319166001600160a01b039092169190911790556200020e565b815481835581811115620000e557600402816004028360005260206000209182019101620000e59190620000ea565b505050565b6200013e91905b808211156200013a5780546001600160a01b031916815560006001820181905562000120600283018262000141565b6200013060038301600062000141565b50600401620000f1565b5090565b90565b50805460018160011615610100020316600290046000825580601f1062000169575062000189565b601f0160209004906000526020600020908101906200018991906200018c565b50565b6200013e91905b808211156200013a576000815560010162000193565b8051620001b681620001f7565b92915050565b600060208284031215620001cf57600080fd5b6000620001dd8484620001a9565b949350505050565b60006001600160a01b038216620001b6565b6200020281620001e5565b81146200018957600080fd5b61331c806200021e6000396000f3fe6080604052600436106101ee5760003560e01c8063648385131161010d578063c1dbd9b2116100a0578063c87b56dd1161006f578063c87b56dd1461056a578063d9b93e3e1461058a578063e35cd92e146105aa578063f4debf01146105bd578063fb9fcd92146105d2576101ee565b8063c1dbd9b2146104e7578063c33d23ad146104fa578063c40412b51461052a578063c63cc5641461054a576101ee565b80638ec65e2e116100dc5780638ec65e2e1461048857806395d89b41146104a8578063a239e33d146104bd578063b187bd26146104d2576101ee565b8063648385131461040657806365c1baec1461043357806367d0661d1461045357806370a0823114610468576101ee565b806337bc047d116101855780634947e661116101545780634947e66114610377578063576f7ea7146103975780635796f5c1146103c45780636352211e146103e6576101ee565b806337bc047d146102ea5780633a83cad21461030a5780633d53f0f71461033757806342842e0e14610364576101ee565b806323b872dd116101c157806323b872dd14610282578063281012ed146102955780632a28a739146102b557806330efb8d3146102d5576101ee565b806306fdde03146101f35780630b564a7c1461021e57806318160ddd1461024057806318ad052b14610262575b600080fd5b3480156101ff57600080fd5b506102086105f2565b604051610215919061308b565b60405180910390f35b34801561022a57600080fd5b5061023e6102393660046129e5565b610617565b005b34801561024c57600080fd5b5061025561078e565b6040516102159190613190565b34801561026e57600080fd5b5061023e61027d366004612bd4565b61079c565b61023e6102903660046128ea565b6108ba565b3480156102a157600080fd5b5061023e6102b036600461288a565b610a6e565b3480156102c157600080fd5b506102556102d0366004612bf3565b610b29565b3480156102e157600080fd5b5061023e610b62565b3480156102f657600080fd5b5061023e610305366004612c3b565b610bbf565b34801561031657600080fd5b5061032a610325366004612b45565b610de3565b604051610215919061305b565b34801561034357600080fd5b5061035761035236600461288a565b611023565b604051610215919061306c565b61023e6103723660046128ea565b6110d6565b34801561038357600080fd5b5061023e6103923660046129b5565b611114565b3480156103a357600080fd5b506103b76103b2366004612b98565b6111a6565b604051610215919061317f565b3480156103d057600080fd5b506103d9611386565b6040516102159190613002565b3480156103f257600080fd5b506103d9610401366004612b98565b611395565b34801561041257600080fd5b506104266104213660046128b0565b6113b0565b604051610215919061307d565b34801561043f57600080fd5b5061023e61044e366004612a58565b6113de565b34801561045f57600080fd5b5061023e6117c3565b34801561047457600080fd5b5061025561048336600461288a565b611824565b34801561049457600080fd5b506104266104a336600461288a565b611868565b3480156104b457600080fd5b50610208611886565b3480156104c957600080fd5b506103d96118a8565b3480156104de57600080fd5b506104266118bc565b61023e6104f5366004612b15565b6118c5565b34801561050657600080fd5b5061051a610515366004612b98565b6119cd565b6040516102159493929190613010565b34801561053657600080fd5b5061023e610545366004612b98565b611b25565b34801561055657600080fd5b506103d9610565366004612b98565b611eea565b34801561057657600080fd5b50610208610585366004612b98565b611f6d565b34801561059657600080fd5b5061023e6105a53660046129b5565b61200e565b61023e6105b8366004612937565b6120b7565b3480156105c957600080fd5b50610255612123565b3480156105de57600080fd5b506104266105ed366004612bf3565b612129565b60408051808201909152600a815269021a7a1a7a990272a23160b51b60208201525b90565b60005460ff16156106435760405162461bcd60e51b815260040161063a9061313f565b60405180910390fd5b3360009081526001602052604090205460ff166106725760405162461bcd60e51b815260040161063a906130ff565b6001600160a01b0383166106985760405162461bcd60e51b815260040161063a9061315f565b60045464010000000081106106bf5760405162461bcd60e51b815260040161063a9061315f565b60048054600101906106d19082612593565b506000600482815481106106e157fe5b600091825260209182902060049091020180546001600160a01b03191633178155426001820155855190925061071f916002840191908701906125bf565b50825161073590600383019060208601906125bf565b5061074260008684612232565b81856001600160a01b03167fe205dcbfcfe48fe394ba4a093373c0f4d16fbaafcbfa298940da8629818ae97285600060405161077f92919061309c565b60405180910390a35050505050565b600554600454036000190190565b60005460ff16156107bf5760405162461bcd60e51b815260040161063a9061313f565b3360009081526001602052604090205460ff166107ee5760405162461bcd60e51b815260040161063a906130ff565b6001821015801561080157506004548211155b61081d5760405162461bcd60e51b815260040161063a9061315f565b6000828152600660205260409020546001600160a01b0316806108525760405162461bcd60e51b815260040161063a9061315f565b6001600160a01b0382166108785760405162461bcd60e51b815260040161063a9061315f565b816001600160a01b0316816001600160a01b031614156108aa5760405162461bcd60e51b815260040161063a9061315f565b6108b5818385612232565b505050565b60005460ff16156108dd5760405162461bcd60e51b815260040161063a9061313f565b80600181101580156108f157506004548111155b61090d5760405162461bcd60e51b815260040161063a9061315f565b6000818152600660205260409020546001600160a01b03166109415760405162461bcd60e51b815260040161063a9061315f565b60008281526006602052604090205482906001600160a01b03163381148061097f57506000828152600960205260409020546001600160a01b031633145b806109b257506001600160a01b0381166000908152600a6020908152604080832033845290915290205460ff1615156001145b6109ce5760405162461bcd60e51b815260040161063a9061315f565b6000848152600660205260409020546001600160a01b031680610a035760405162461bcd60e51b815260040161063a9061315f565b6001600160a01b038616610a295760405162461bcd60e51b815260040161063a9061315f565b866001600160a01b0316816001600160a01b031614610a5a5760405162461bcd60e51b815260040161063a9061315f565b610a65878787612232565b50505050505050565b60005461010090046001600160a01b03163314610a9d5760405162461bcd60e51b815260040161063a9061310f565b6001600160a01b038116610ac35760405162461bcd60e51b815260040161063a9061311f565b600080546040516001600160a01b038085169361010090930416917f55e81c1af91094c94f294582d98a7973d431a292c8ca7338d2917fea3eadf6de91a3600080546001600160a01b0390921661010002610100600160a81b0319909216919091179055565b60001982016000908152600b60205260408082209051610b4a908490612ff6565b90815260200160405180910390205490505b92915050565b60005461010090046001600160a01b03163314610b915760405162461bcd60e51b815260040161063a9061310f565b60005460ff16610bb35760405162461bcd60e51b815260040161063a9061316f565b6000805460ff19169055565b60005460ff1615610be25760405162461bcd60e51b815260040161063a9061313f565b8260018110158015610bf657506004548111155b610c125760405162461bcd60e51b815260040161063a9061315f565b6000818152600660205260409020546001600160a01b0316610c465760405162461bcd60e51b815260040161063a9061315f565b3360009081526001602052604090205460ff16610c755760405162461bcd60e51b815260040161063a906130ff565b60035460408051633ccc40b560e01b815290516000926001600160a01b031691633ccc40b5916004808301926020929190829003018186803b158015610cba57600080fd5b505afa158015610cce573d6000803e3d6000fd5b505050506040513d601f19601f82011682018060405250610cf29190810190612bb6565b90508060018503108015610d065750600084115b610d225760405162461bcd60e51b815260040161063a9061315f565b604051637dcfe6c960e11b8152309063fb9fcd9290610d47908790879060040161319e565b60206040518083038186803b158015610d5f57600080fd5b505afa158015610d73573d6000803e3d6000fd5b505050506040513d601f19601f82011682018060405250610d979190810190612b7a565b15610db45760405162461bcd60e51b815260040161063a9061312f565b6000858152600c6020908152604080832087845282529091208451610ddb928601906125bf565b505050505050565b80516060906040811115610e095760405162461bcd60e51b815260040161063a9061315f565b80604051908082528060200260200182016040528015610e4357816020015b610e3061263d565b815260200190600190039081610e285790505b5091506000805b8281101561101b57848181518110610e5e57fe5b602090810291909101810151600081815260069092526040909120549092506001600160a01b03161561101357600060048381548110610e9a57fe5b60009182526020918290206040805160808101825260049390930290910180546001600160a01b03168352600180820154848601526002808301805485516101009482161594909402600019011691909104601f810187900487028301870185528083529296509394869493860193919290830182828015610f5d5780601f10610f3257610100808354040283529160200191610f5d565b820191906000526020600020905b815481529060010190602001808311610f4057829003601f168201915b505050918352505060038201805460408051602060026001851615610100026000190190941693909304601f8101849004840282018401909252818152938201939291830182828015610ff15780601f10610fc657610100808354040283529160200191610ff1565b820191906000526020600020905b815481529060010190602001808311610fd457829003601f168201915b50505050508152505085838151811061100657fe5b6020026020010181905250505b600101610e4a565b505050919050565b60606001600160a01b03821661104b5760405162461bcd60e51b815260040161063a9061315f565b6001600160a01b0382166000908152600760209081526040918290208054835181815281840281019093019093529190818015611092578160200160208202803883390190505b50925060005b8181101561101b578281815481106110ac57fe5b90600052602060002001548482815181106110c357fe5b6020908102919091010152600101611098565b60005460ff16156110f95760405162461bcd60e51b815260040161063a9061313f565b6108b5838383604051806020016040528060008152506123f2565b60005460ff16156111375760405162461bcd60e51b815260040161063a9061313f565b336000818152600a602090815260408083206001600160a01b038716808552925291829020805460ff191685151517905590519091907f0b866b85cf4007f8f435ef184867e49c5eb5925fcadeecfad549ca1db71c09cc9061119a90859061307d565b60405180910390a35050565b6111ae61263d565b81600181101580156111c257506004548111155b6111de5760405162461bcd60e51b815260040161063a9061315f565b6000818152600660205260409020546001600160a01b03166112125760405162461bcd60e51b815260040161063a9061315f565b6004838154811061121f57fe5b60009182526020918290206040805160808101825260049390930290910180546001600160a01b03168352600180820154848601526002808301805485516101009482161594909402600019011691909104601f81018790048702830187018552808352949592949386019391929091908301828280156112e15780601f106112b6576101008083540402835291602001916112e1565b820191906000526020600020905b8154815290600101906020018083116112c457829003601f168201915b505050918352505060038201805460408051602060026001851615610100026000190190941693909304601f81018490048402820184019092528181529382019392918301828280156113755780601f1061134a57610100808354040283529160200191611375565b820191906000526020600020905b81548152906001019060200180831161135857829003601f168201915b505050505081525050915050919050565b6002546001600160a01b031681565b6000908152600660205260409020546001600160a01b031690565b6001600160a01b039182166000908152600a6020908152604080832093909416825291909152205460ff1690565b60005460ff16156114015760405162461bcd60e51b815260040161063a9061313f565b3360009081526001602052604090205460ff166114305760405162461bcd60e51b815260040161063a906130ff565b6001600160a01b0385166114565760405162461bcd60e51b815260040161063a9061315f565b60035460408051633ccc40b560e01b815290516000926001600160a01b031691633ccc40b5916004808301926020929190829003018186803b15801561149b57600080fd5b505afa1580156114af573d6000803e3d6000fd5b505050506040513d601f19601f820116820180604052506114d39190810190612bb6565b905080600184031080156114e75750600083115b6115035760405162461bcd60e51b815260040161063a9061315f565b6003546040516324b0fcb160e01b81526001600160a01b03909116906324b0fcb190611533908690600401613190565b60206040518083038186803b15801561154b57600080fd5b505afa15801561155f573d6000803e3d6000fd5b505050506040513d601f19601f820116820180604052506115839190810190612b7a565b61159f5760405162461bcd60e51b815260040161063a9061314f565b81516115bd5760405162461bcd60e51b815260040161063a9061315f565b60001983016000908152600b602052604080822090516115de908590612ff6565b908152602001604051809103902054905080600014611666576000818152600660205260409020546001600160a01b031661161a818984612232565b81886001600160a01b03167fe205dcbfcfe48fe394ba4a093373c0f4d16fbaafcbfa298940da8629818ae972888888604051611658939291906130cd565b60405180910390a350610a65565b600454640100000000811061168d5760405162461bcd60e51b815260040161063a9061315f565b600480546001019061169f9082612593565b506000600482815481106116af57fe5b600091825260209182902060049091020180546001600160a01b0319163317815542600182015589519092506116ed916002840191908b01906125bf565b50865161170390600383019060208a01906125bf565b5081600b6000600189038152602001908152602001600020866040516117299190612ff6565b9081526040805160209281900383019020929092556000848152600c82528281206000198a0182528252919091208651611765928801906125bf565b5061177260008a84612232565b81896001600160a01b03167fe205dcbfcfe48fe394ba4a093373c0f4d16fbaafcbfa298940da8629818ae9728989896040516117b0939291906130cd565b60405180910390a3505050505050505050565b60005461010090046001600160a01b031633146117f25760405162461bcd60e51b815260040161063a9061310f565b60005460ff16156118155760405162461bcd60e51b815260040161063a9061313f565b6000805460ff19166001179055565b60006001600160a01b03821661184c5760405162461bcd60e51b815260040161063a9061315f565b506001600160a01b031660009081526007602052604090205490565b6001600160a01b031660009081526001602052604090205460ff1690565b60408051808201909152600881526721a7a1a7a9a72a2360c11b602082015290565b60005461010090046001600160a01b031681565b60005460ff1681565b60005460ff16156118e85760405162461bcd60e51b815260040161063a9061313f565b6000818152600660205260409020546001600160a01b03168061191d5760405162461bcd60e51b815260040161063a9061315f565b336001600160a01b038216148061195757506001600160a01b0381166000908152600a6020908152604080832033845290915290205460ff165b6119735760405162461bcd60e51b815260040161063a9061315f565b60008281526009602052604080822080546001600160a01b0319166001600160a01b0387169081179091559051849233917fe6dc004dd5d5c937c10d93ec12fefa9f5a8699b7a01dd5a0d53814d25e369f7b9190a4505050565b600481815481106119da57fe5b6000918252602091829020600491909102018054600180830154600280850180546040805161010096831615969096026000190190911692909204601f81018890048802850188019092528184526001600160a01b0390941696509094919291830182828015611a8b5780601f10611a6057610100808354040283529160200191611a8b565b820191906000526020600020905b815481529060010190602001808311611a6e57829003601f168201915b5050505060038301805460408051602060026001851615610100026000190190941693909304601f8101849004840282018401909252818152949594935090830182828015611b1b5780601f10611af057610100808354040283529160200191611b1b565b820191906000526020600020905b815481529060010190602001808311611afe57829003601f168201915b5050505050905084565b60005460ff1615611b485760405162461bcd60e51b815260040161063a9061313f565b3360009081526001602052604090205460ff16611b775760405162461bcd60e51b815260040161063a906130ff565b8060018110158015611b8b57506004548111155b611ba75760405162461bcd60e51b815260040161063a9061315f565b6000818152600660205260409020546001600160a01b0316611bdb5760405162461bcd60e51b815260040161063a9061315f565b60008281526006602090815260408083205460088352818420546001600160a01b039091168085526007909352922080549192918590829084908110611c1d57fe5b906000526020600020015414611c455760405162461bcd60e51b815260040161063a9061315f565b8054600019018214611ca057805460009082906000198101908110611c6657fe5b9060005260206000200154905080828481548110611c8057fe5b600091825260208083209091019290925591825260089052604090208290555b805460001901611cb0828261266e565b50600085815260066020908152604080832080546001600160a01b0319169055600882528083208390556003548151633ccc40b560e01b815291516001600160a01b0390911692633ccc40b59260048082019391829003018186803b158015611d1857600080fd5b505afa158015611d2c573d6000803e3d6000fd5b505050506040513d601f19601f82011682018060405250611d509190810190612bb6565b905060005b81811015611e5f576000878152600c6020908152604080832084845282529182902080548351601f6002600019610100600186161502019093169290920491820184900484028101840190945280845260609392830182828015611dfa5780601f10611dcf57610100808354040283529160200191611dfa565b820191906000526020600020905b815481529060010190602001808311611ddd57829003601f168201915b50505060008b8152600c602090815260408083208884529091528120939450611e269392509050612692565b6000828152600b6020526040908190209051611e43908390612ff6565b9081526040519081900360200190206000905550600101611d55565b5060058054600101905560405186906000906001600160a01b038716907fddf252ad1be2c89b69c2b068fc378daa952ba7f163c4a11628f55a4df523b3ef908390a4836001600160a01b03167fb195b2fac3b13b232d531316147b70a58910609c9eb07b4137cc0a50e658f92187604051611eda9190613190565b60405180910390a2505050505050565b60008160018110158015611f0057506004548111155b611f1c5760405162461bcd60e51b815260040161063a9061315f565b6000818152600660205260409020546001600160a01b0316611f505760405162461bcd60e51b815260040161063a9061315f565b50506000908152600960205260409020546001600160a01b031690565b6000818152600d602090815260409182902080548351601f60026000196101006001861615020190931692909204918201849004840281018401909452808452606093928301828280156120025780601f10611fd757610100808354040283529160200191612002565b820191906000526020600020905b815481529060010190602001808311611fe557829003601f168201915b50505050509050919050565b60005461010090046001600160a01b0316331461203d5760405162461bcd60e51b815260040161063a9061310f565b6001600160a01b0382166120635760405162461bcd60e51b815260040161063a9061311f565b6001600160a01b038216600081815260016020526040808220805460ff191685151590811790915590519092917f93dfd23a095b0b750d81246c33585a82b9b0727258197b544c5a84ebefc4e42e91a35050565b60005460ff16156120da5760405162461bcd60e51b815260040161063a9061313f565b61211c85858585858080601f0160208091040260200160405190810160405280939291908181526020018383808284376000920191909152506123f292505050565b5050505050565b60045490565b600080600360009054906101000a90046001600160a01b03166001600160a01b0316633ccc40b56040518163ffffffff1660e01b815260040160206040518083038186803b15801561217a57600080fd5b505afa15801561218e573d6000803e3d6000fd5b505050506040513d601f19601f820116820180604052506121b29190810190612bb6565b905080600185031080156121c65750600084115b6121e25760405162461bcd60e51b815260040161063a9061315f565b60001984016000908152600b60205260408082209051612203908690612ff6565b90815260200160405180910390205490508060001461222757600192505050610b5c565b600092505050610b5c565b6001600160a01b03831615612348576000818152600860209081526040808320546001600160a01b038716845260079092529091208054839082908490811061227757fe5b90600052602060002001541461229f5760405162461bcd60e51b815260040161063a9061315f565b80546000190182146122fa578054600090829060001981019081106122c057fe5b90600052602060002001549050808284815481106122da57fe5b600091825260208083209091019290925591825260089052604090208290555b80546000190161230a828261266e565b506000838152600960205260409020546001600160a01b03161561234557600083815260096020526040902080546001600160a01b03191690555b50505b600081815260066020908152604080832080546001600160a01b0319166001600160a01b038781169182179092558085526007845282852080546001810182558187528587200187905554868652600890945291909320600019909201909155829185166123b657306123b8565b845b6001600160a01b03167fddf252ad1be2c89b69c2b068fc378daa952ba7f163c4a11628f55a4df523b3ef60405160405180910390a4505050565b816001811015801561240657506004548111155b6124225760405162461bcd60e51b815260040161063a9061315f565b6000818152600660205260409020546001600160a01b03166124565760405162461bcd60e51b815260040161063a9061315f565b60008381526006602052604090205483906001600160a01b03163381148061249457506000828152600960205260409020546001600160a01b031633145b806124c757506001600160a01b0381166000908152600a6020908152604080832033845290915290205460ff1615156001145b6124e35760405162461bcd60e51b815260040161063a9061315f565b6000858152600660205260409020546001600160a01b0316806125185760405162461bcd60e51b815260040161063a9061315f565b6001600160a01b03871661253e5760405162461bcd60e51b815260040161063a9061315f565b876001600160a01b0316816001600160a01b03161461256f5760405162461bcd60e51b815260040161063a9061315f565b61257a888888612232565b863b80612588575050610a65565b505050505050505050565b8154818355818111156108b5576004028160040283600052602060002091820191016108b591906126d9565b828054600181600116156101000203166002900490600052602060002090601f016020900481019282601f1061260057805160ff191683800117855561262d565b8280016001018555821561262d579182015b8281111561262d578251825591602001919060010190612612565b50612639929150612722565b5090565b604051806080016040528060006001600160a01b031681526020016000815260200160608152602001606081525090565b8154818355818111156108b5576000838152602090206108b5918101908301612722565b50805460018160011615610100020316600290046000825580601f106126b857506126d6565b601f0160209004906000526020600020908101906126d69190612722565b50565b61061491905b808211156126395780546001600160a01b031916815560006001820181905561270b6002830182612692565b612719600383016000612692565b506004016126df565b61061491905b808211156126395760008155600101612728565b8035610b5c816132b3565b600082601f83011261275857600080fd5b813561276b612766826131e5565b6131be565b9150818183526020840193506020810190508385602084028201111561279057600080fd5b60005b838110156127bc57816127a68882612874565b8452506020928301929190910190600101612793565b5050505092915050565b8035610b5c816132c7565b8051610b5c816132c7565b60008083601f8401126127ee57600080fd5b50813567ffffffffffffffff81111561280657600080fd5b60208301915083600182028301111561281e57600080fd5b9250929050565b600082601f83011261283657600080fd5b813561284461276682613206565b9150808252602083016020830185838301111561286057600080fd5b61286b83828461326d565b50505092915050565b8035610b5c816132d0565b8051610b5c816132d0565b60006020828403121561289c57600080fd5b60006128a8848461273c565b949350505050565b600080604083850312156128c357600080fd5b60006128cf858561273c565b92505060206128e08582860161273c565b9150509250929050565b6000806000606084860312156128ff57600080fd5b600061290b868661273c565b935050602061291c8682870161273c565b925050604061292d86828701612874565b9150509250925092565b60008060008060006080868803121561294f57600080fd5b600061295b888861273c565b955050602061296c8882890161273c565b945050604061297d88828901612874565b935050606086013567ffffffffffffffff81111561299a57600080fd5b6129a6888289016127dc565b92509250509295509295909350565b600080604083850312156129c857600080fd5b60006129d4858561273c565b92505060206128e0858286016127c6565b6000806000606084860312156129fa57600080fd5b6000612a06868661273c565b935050602084013567ffffffffffffffff811115612a2357600080fd5b612a2f86828701612825565b925050604084013567ffffffffffffffff811115612a4c57600080fd5b61292d86828701612825565b600080600080600060a08688031215612a7057600080fd5b6000612a7c888861273c565b955050602086013567ffffffffffffffff811115612a9957600080fd5b612aa588828901612825565b945050604086013567ffffffffffffffff811115612ac257600080fd5b612ace88828901612825565b9350506060612adf88828901612874565b925050608086013567ffffffffffffffff811115612afc57600080fd5b612b0888828901612825565b9150509295509295909350565b60008060408385031215612b2857600080fd5b6000612b34858561273c565b92505060206128e085828601612874565b600060208284031215612b5757600080fd5b813567ffffffffffffffff811115612b6e57600080fd5b6128a884828501612747565b600060208284031215612b8c57600080fd5b60006128a884846127d1565b600060208284031215612baa57600080fd5b60006128a88484612874565b600060208284031215612bc857600080fd5b60006128a8848461287f565b60008060408385031215612be757600080fd5b60006128cf8585612874565b60008060408385031215612c0657600080fd5b6000612c128585612874565b925050602083013567ffffffffffffffff811115612c2f57600080fd5b6128e085828601612825565b600080600060608486031215612c5057600080fd5b6000612c5c8686612874565b9350506020612a2f86828701612874565b6000612c798383612f8b565b9392505050565b6000612c8c8383612fed565b505060200190565b612c9d81613246565b82525050565b6000612cae82613234565b612cb88185613238565b935083602082028501612cca8561322e565b8060005b85811015612d045784840389528151612ce78582612c6d565b9450612cf28361322e565b60209a909a0199925050600101612cce565b5091979650505050505050565b6000612d1c82613234565b612d268185613238565b9350612d318361322e565b8060005b83811015612d5f578151612d498882612c80565b9750612d548361322e565b925050600101612d35565b509495945050505050565b612c9d81613251565b612c9d81613262565b6000612d8782613234565b612d918185613238565b9350612da1818560208601613279565b612daa816132a9565b9093019392505050565b6000612dbf82613234565b612dc98185613241565b9350612dd9818560208601613279565b9290920192915050565b6000612df0601c83613238565b7f4e6f74206120627573696e6573732061646d696e6973747261746f7200000000815260200192915050565b6000612e29601a83613238565b7f4e6f7420612073797374656d2061646d696e6973747261746f72000000000000815260200192915050565b6000612e62602383613238565b7f44657374696e6174696f6e2061646472657373206973207a65726f206164647281526265737360e81b602082015260400192915050565b6000612ea7602183613238565b7fe5b7b2e7bb8fe5ad98e59ca8efbc8ce4b88de883bde9878de5a48de7bb91e5ae8152604d60f91b602082015260400192915050565b6000612eea601883613238565b7f436f6e747261637420686173206265656e2066726f7a656e0000000000000000815260200192915050565b6000612f23601883613238565b7fe6ada4e993bee689bfe58591e5b7b2e7bb8fe7a681e794a80000000000000000815260200192915050565b6000610b5c600083613238565b6000612f69601383613238565b7221b7b73a3930b1ba103737ba10333937bd32b760691b815260200192915050565b80516000906080840190612f9f8582612c94565b506020830151612fb26020860182612fed565b5060408301518482036040860152612fca8282612d7c565b91505060608301518482036060860152612fe48282612d7c565b95945050505050565b612c9d81610614565b6000612c798284612db4565b60208101610b5c8284612c94565b6080810161301e8287612c94565b61302b6020830186612fed565b818103604083015261303d8185612d7c565b905081810360608301526130518184612d7c565b9695505050505050565b60208082528101612c798184612ca3565b60208082528101612c798184612d11565b60208101610b5c8284612d6a565b60208082528101612c798184612d7c565b606080825281016130ad8185612d7c565b90506130bc6020830184612d73565b81810360408301526128a881612f4f565b606080825281016130de8186612d7c565b90506130ed6020830185612fed565b8181036040830152612fe48184612d7c565b60208082528101610b5c81612de3565b60208082528101610b5c81612e1c565b60208082528101610b5c81612e55565b60208082528101610b5c81612e9a565b60208082528101610b5c81612edd565b60208082528101610b5c81612f16565b60208082528101610b5c81612f4f565b60208082528101610b5c81612f5c565b60208082528101612c798184612f8b565b60208101610b5c8284612fed565b604081016131ac8285612fed565b81810360208301526128a88184612d7c565b60405181810167ffffffffffffffff811182821017156131dd57600080fd5b604052919050565b600067ffffffffffffffff8211156131fc57600080fd5b5060209081020190565b600067ffffffffffffffff82111561321d57600080fd5b506020601f91909101601f19160190565b60200190565b5190565b90815260200190565b919050565b6000610b5c82613256565b151590565b6001600160a01b031690565b6000610b5c82610614565b82818337506000910152565b60005b8381101561329457818101518382015260200161327c565b838111156132a3576000848401525b50505050565b601f01601f191690565b6132bc81613246565b81146126d657600080fd5b6132bc81613251565b6132bc8161061456fea365627a7a723158209232f5182b4a093c112c21eaafc45f0f735486c2299e3354ae978bc6162f04636c6578706572696d656e74616cf564736f6c634300050b0040",
    "sourcePath": "/Users/user/Documents/ERC-1808/contracts/draft/ERC1808Mintable.sol",
    "compiler": {
        "name": "solc",
        "version": "0.5.11+commit.c082d0b4"
    },
    "functionHashes": {
        "authorize(address,uint256)": "c1dbd9b2",
        "balanceOf(address)": "70a08231",
        "createNFT(address,string,string)": "0b564a7c",
        "createNFT(address,string,string,uint256,string)": "65c1baec",
        "destroyNFT(uint256)": "c40412b5",
        "doPause()": "67d0661d",
        "doUnpause()": "30efb8d3",
        "getAuthorized(uint256)": "c63cc564",
        "getNFT(uint256)": "576f7ea7",
        "getNFTArrayLength()": "f4debf01",
        "getNFTs(uint256[])": "3a83cad2",
        "getOwnNFTIds(address)": "3d53f0f7",
        "getTokenId(uint256,string)": "2a28a739",
        "isAuthorizedForAll(address,address)": "64838513",
        "isBusinessAdmin(address)": "8ec65e2e",
        "isExistTokenId(uint256,string)": "fb9fcd92",
        "isPaused()": "b187bd26",
        "myChainAddr()": "5796f5c1",
        "name()": "06fdde03",
        "nftArray(uint256)": "c33d23ad",
        "ownerOf(uint256)": "6352211e",
        "safeTransferByContract(uint256,address)": "18ad052b",
        "safeTransferFrom(address,address,uint256)": "42842e0e",
        "safeTransferFromWithExtData(address,address,uint256,string)": "e35cd92e",
        "setAuthorizedForAll(address,bool)": "4947e661",
        "setBusinessAdmin(address,bool)": "d9b93e3e",
        "setNFTOtherChainTokenId(uint256,uint256,string)": "37bc047d",
        "symbol()": "95d89b41",
        "systemAdmin()": "a239e33d",
        "tokenURI(uint256)": "c87b56dd",
        "totalSupply()": "18160ddd",
        "transferFrom(address,address,uint256)": "23b872dd",
        "transferSystemAdmin(address)": "281012ed"
    },
    "gasEstimates": {
        "creation": {
            "codeDepositCost": "2616800",
            "executionCost": "infinite",
            "totalCost": "infinite"
        },
        "external": {
            "authorize(address,uint256)": "infinite",
            "balanceOf(address)": "infinite",
            "createNFT(address,string,string)": "infinite",
            "createNFT(address,string,string,uint256,string)": "infinite",
            "destroyNFT(uint256)": "infinite",
            "doPause()": "20935",
            "doUnpause()": "20948",
            "getAuthorized(uint256)": "infinite",
            "getNFT(uint256)": "infinite",
            "getNFTArrayLength()": "609",
            "getNFTs(uint256[])": "infinite",
            "getOwnNFTIds(address)": "infinite",
            "getTokenId(uint256,string)": "infinite",
            "isAuthorizedForAll(address,address)": "infinite",
            "isBusinessAdmin(address)": "infinite",
            "isExistTokenId(uint256,string)": "infinite",
            "isPaused()": "622",
            "myChainAddr()": "infinite",
            "name()": "infinite",
            "nftArray(uint256)": "infinite",
            "ownerOf(uint256)": "infinite",
            "safeTransferByContract(uint256,address)": "infinite",
            "safeTransferFrom(address,address,uint256)": "infinite",
            "safeTransferFromWithExtData(address,address,uint256,string)": "infinite",
            "setAuthorizedForAll(address,bool)": "infinite",
            "setBusinessAdmin(address,bool)": "infinite",
            "setNFTOtherChainTokenId(uint256,uint256,string)": "infinite",
            "symbol()": "infinite",
            "systemAdmin()": "infinite",
            "tokenURI(uint256)": "infinite",
            "totalSupply()": "805",
            "transferFrom(address,address,uint256)": "infinite",
            "transferSystemAdmin(address)": "infinite"
        },
        "internal": {
            "_safeTransferFrom(address,address,uint256,string memory)": "infinite",
            "_transfer(address,address,uint256)": "infinite"
        }
    }
}